{
  "contractName": "DrugTraceability",
  "abi": [
    {
      "anonymous": false,
      "inputs": [
        {
          "indexed": false,
          "internalType": "string",
          "name": "batchId",
          "type": "string"
        },
        {
          "indexed": false,
          "internalType": "address",
          "name": "distributor",
          "type": "address"
        }
      ],
      "name": "DrugDistributed",
      "type": "event"
    },
    {
      "anonymous": false,
      "inputs": [
        {
          "indexed": false,
          "internalType": "string",
          "name": "batchId",
          "type": "string"
        },
        {
          "indexed": false,
          "internalType": "string",
          "name": "name",
          "type": "string"
        },
        {
          "indexed": false,
          "internalType": "address",
          "name": "manufacturer",
          "type": "address"
        }
      ],
      "name": "DrugManufactured",
      "type": "event"
    },
    {
      "anonymous": false,
      "inputs": [
        {
          "indexed": false,
          "internalType": "string",
          "name": "batchId",
          "type": "string"
        },
        {
          "indexed": false,
          "internalType": "address",
          "name": "retailer",
          "type": "address"
        }
      ],
      "name": "DrugRetailerReceived",
      "type": "event"
    },
    {
      "anonymous": false,
      "inputs": [
        {
          "indexed": false,
          "internalType": "string",
          "name": "batchId",
          "type": "string"
        },
        {
          "indexed": false,
          "internalType": "string",
          "name": "currentOwner",
          "type": "string"
        }
      ],
      "name": "DrugVerified",
      "type": "event"
    },
    {
      "inputs": [
        {
          "internalType": "string",
          "name": "",
          "type": "string"
        }
      ],
      "name": "drugs",
      "outputs": [
        {
          "internalType": "string",
          "name": "batchId",
          "type": "string"
        },
        {
          "internalType": "string",
          "name": "name",
          "type": "string"
        },
        {
          "internalType": "address",
          "name": "manufacturer",
          "type": "address"
        },
        {
          "internalType": "address",
          "name": "distributor",
          "type": "address"
        },
        {
          "internalType": "address",
          "name": "retailer",
          "type": "address"
        },
        {
          "internalType": "bool",
          "name": "isAuthentic",
          "type": "bool"
        },
        {
          "internalType": "string",
          "name": "currentOwner",
          "type": "string"
        }
      ],
      "stateMutability": "view",
      "type": "function",
      "constant": true
    },
    {
      "inputs": [
        {
          "internalType": "string",
          "name": "_batchId",
          "type": "string"
        },
        {
          "internalType": "string",
          "name": "_name",
          "type": "string"
        }
      ],
      "name": "manufactureDrug",
      "outputs": [],
      "stateMutability": "nonpayable",
      "type": "function"
    },
    {
      "inputs": [
        {
          "internalType": "string",
          "name": "_batchId",
          "type": "string"
        },
        {
          "internalType": "address",
          "name": "_distributor",
          "type": "address"
        }
      ],
      "name": "distributeDrug",
      "outputs": [],
      "stateMutability": "nonpayable",
      "type": "function"
    },
    {
      "inputs": [
        {
          "internalType": "string",
          "name": "_batchId",
          "type": "string"
        },
        {
          "internalType": "address",
          "name": "_retailer",
          "type": "address"
        }
      ],
      "name": "receiveByRetailer",
      "outputs": [],
      "stateMutability": "nonpayable",
      "type": "function"
    },
    {
      "inputs": [
        {
          "internalType": "string",
          "name": "_batchId",
          "type": "string"
        }
      ],
      "name": "verifyDrug",
      "outputs": [
        {
          "internalType": "bool",
          "name": "",
          "type": "bool"
        }
      ],
      "stateMutability": "view",
      "type": "function",
      "constant": true
    },
    {
      "inputs": [
        {
          "internalType": "string",
          "name": "_batchId",
          "type": "string"
        }
      ],
      "name": "markAuthentic",
      "outputs": [],
      "stateMutability": "nonpayable",
      "type": "function"
    }
  ],
  "bytecode": "0x608060405234801561001057600080fd5b5061191d806100206000396000f3fe608060405234801561001057600080fd5b50600436106100625760003560e01c80633b7b0a74146100675780637542e46914610097578063977e47e1146100b3578063b009493d146100cf578063ef2fdba414610105578063f9419f0e14610121575b600080fd5b610081600480360381019061007c9190611035565b61013d565b60405161008e91906114c7565b60405180910390f35b6100b160048036038101906100ac9190611076565b610493565b005b6100cd60048036038101906100c89190611035565b610685565b005b6100e960048036038101906100e49190611035565b6107e3565b6040516100fc9796959493929190611557565b60405180910390f35b61011f600480360381019061011a9190611076565b610a40565b005b61013b600480360381019061013691906110ca565b610c32565b005b60008060008360405161015091906114b0565b90815260200160405180910390206040518060e00160405290816000820180546101799061182f565b80601f01602080910402602001604051908101604052809291908181526020018280546101a59061182f565b80156101f25780601f106101c7576101008083540402835291602001916101f2565b820191906000526020600020905b8154815290600101906020018083116101d557829003601f168201915b5050505050815260200160018201805461020b9061182f565b80601f01602080910402602001604051908101604052809291908181526020018280546102379061182f565b80156102845780601f1061025957610100808354040283529160200191610284565b820191906000526020600020905b81548152906001019060200180831161026757829003601f168201915b505050505081526020016002820160009054906101000a900473ffffffffffffffffffffffffffffffffffffffff1673ffffffffffffffffffffffffffffffffffffffff1673ffffffffffffffffffffffffffffffffffffffff1681526020016003820160009054906101000a900473ffffffffffffffffffffffffffffffffffffffff1673ffffffffffffffffffffffffffffffffffffffff1673ffffffffffffffffffffffffffffffffffffffff1681526020016004820160009054906101000a900473ffffffffffffffffffffffffffffffffffffffff1673ffffffffffffffffffffffffffffffffffffffff1673ffffffffffffffffffffffffffffffffffffffff1681526020016004820160149054906101000a900460ff161515151581526020016005820180546103ba9061182f565b80601f01602080910402602001604051908101604052809291908181526020018280546103e69061182f565b80156104335780601f1061040857610100808354040283529160200191610433565b820191906000526020600020905b81548152906001019060200180831161041657829003601f168201915b5050505050815250509050600081600001515111610486576040517f08c379a000000000000000000000000000000000000000000000000000000000815260040161047d906116b2565b60405180910390fd5b8060a00151915050919050565b600080836040516104a491906114b0565b908152602001604051809103902090508060020160009054906101000a900473ffffffffffffffffffffffffffffffffffffffff1673ffffffffffffffffffffffffffffffffffffffff163373ffffffffffffffffffffffffffffffffffffffff1614610546576040517f08c379a000000000000000000000000000000000000000000000000000000000815260040161053d906116f2565b60405180910390fd5b600073ffffffffffffffffffffffffffffffffffffffff168273ffffffffffffffffffffffffffffffffffffffff1614156105b6576040517f08c379a00000000000000000000000000000000000000000000000000000000081526004016105ad90611652565b60405180910390fd5b818160030160006101000a81548173ffffffffffffffffffffffffffffffffffffffff021916908373ffffffffffffffffffffffffffffffffffffffff1602179055506040518060400160405280600b81526020017f4469737472696275746f72000000000000000000000000000000000000000000815250816005019080519060200190610646929190610f15565b507fe18838eb099b192370eeab043c1513b93a4a6a16b9ce8c80fae2d7c72c4a5c4f83836040516106789291906114e2565b60405180910390a1505050565b6000808260405161069691906114b0565b908152602001604051809103902090508060040160009054906101000a900473ffffffffffffffffffffffffffffffffffffffff1673ffffffffffffffffffffffffffffffffffffffff163373ffffffffffffffffffffffffffffffffffffffff1614610738576040517f08c379a000000000000000000000000000000000000000000000000000000000815260040161072f90611632565b60405180910390fd5b60018160040160146101000a81548160ff0219169083151502179055506040518060400160405280601481526020017f56657269666965642062792052657461696c65720000000000000000000000008152508160050190805190602001906107a2929190610f15565b507ffb7bd50ad5e639895cd4ea6bc1cd4d03c226259be0aca377703ad7c9a6c8124f82826005016040516107d79291906115db565b60405180910390a15050565b60008180516020810182018051848252602083016020850120818352809550505050505060009150905080600001805461081c9061182f565b80601f01602080910402602001604051908101604052809291908181526020018280546108489061182f565b80156108955780601f1061086a57610100808354040283529160200191610895565b820191906000526020600020905b81548152906001019060200180831161087857829003601f168201915b5050505050908060010180546108aa9061182f565b80601f01602080910402602001604051908101604052809291908181526020018280546108d69061182f565b80156109235780601f106108f857610100808354040283529160200191610923565b820191906000526020600020905b81548152906001019060200180831161090657829003601f168201915b5050505050908060020160009054906101000a900473ffffffffffffffffffffffffffffffffffffffff16908060030160009054906101000a900473ffffffffffffffffffffffffffffffffffffffff16908060040160009054906101000a900473ffffffffffffffffffffffffffffffffffffffff16908060040160149054906101000a900460ff16908060050180546109bd9061182f565b80601f01602080910402602001604051908101604052809291908181526020018280546109e99061182f565b8015610a365780601f10610a0b57610100808354040283529160200191610a36565b820191906000526020600020905b815481529060010190602001808311610a1957829003601f168201915b5050505050905087565b60008083604051610a5191906114b0565b908152602001604051809103902090508060030160009054906101000a900473ffffffffffffffffffffffffffffffffffffffff1673ffffffffffffffffffffffffffffffffffffffff163373ffffffffffffffffffffffffffffffffffffffff1614610af3576040517f08c379a0000000000000000000000000000000000000000000000000000000008152600401610aea90611612565b60405180910390fd5b600073ffffffffffffffffffffffffffffffffffffffff168273ffffffffffffffffffffffffffffffffffffffff161415610b63576040517f08c379a0000000000000000000000000000000000000000000000000000000008152600401610b5a90611672565b60405180910390fd5b818160040160006101000a81548173ffffffffffffffffffffffffffffffffffffffff021916908373ffffffffffffffffffffffffffffffffffffffff1602179055506040518060400160405280600881526020017f52657461696c6572000000000000000000000000000000000000000000000000815250816005019080519060200190610bf3929190610f15565b507f56cef48742bfc65d67305c7717db8b4fc3efbcc69ffe576c760df77524f45a138383604051610c259291906114e2565b60405180910390a1505050565b6000825111610c76576040517f08c379a0000000000000000000000000000000000000000000000000000000008152600401610c6d906116d2565b60405180910390fd5b6000815111610cba576040517f08c379a0000000000000000000000000000000000000000000000000000000008152600401610cb190611692565b60405180910390fd5b6040518060e001604052808381526020018281526020013373ffffffffffffffffffffffffffffffffffffffff168152602001600073ffffffffffffffffffffffffffffffffffffffff168152602001600073ffffffffffffffffffffffffffffffffffffffff1681526020016000151581526020016040518060400160405280600c81526020017f4d616e7566616374757265720000000000000000000000000000000000000000815250815250600083604051610d7991906114b0565b90815260200160405180910390206000820151816000019080519060200190610da3929190610f15565b506020820151816001019080519060200190610dc0929190610f15565b5060408201518160020160006101000a81548173ffffffffffffffffffffffffffffffffffffffff021916908373ffffffffffffffffffffffffffffffffffffffff16021790555060608201518160030160006101000a81548173ffffffffffffffffffffffffffffffffffffffff021916908373ffffffffffffffffffffffffffffffffffffffff16021790555060808201518160040160006101000a81548173ffffffffffffffffffffffffffffffffffffffff021916908373ffffffffffffffffffffffffffffffffffffffff16021790555060a08201518160040160146101000a81548160ff02191690831515021790555060c0820151816005019080519060200190610ed2929190610f15565b509050507f4a570515ee308ab27b98cd563bd4235f3b24b853012aa23ea423f161463a5752828233604051610f0993929190611512565b60405180910390a15050565b828054610f219061182f565b90600052602060002090601f016020900481019282610f435760008555610f8a565b82601f10610f5c57805160ff1916838001178555610f8a565b82800160010185558215610f8a579182015b82811115610f89578251825591602001919060010190610f6e565b5b509050610f979190610f9b565b5090565b5b80821115610fb4576000816000905550600101610f9c565b5090565b6000610fcb610fc684611743565b611712565b905082815260208101848484011115610fe357600080fd5b610fee8482856117ed565b509392505050565b600081359050611005816118d0565b92915050565b600082601f83011261101c57600080fd5b813561102c848260208601610fb8565b91505092915050565b60006020828403121561104757600080fd5b600082013567ffffffffffffffff81111561106157600080fd5b61106d8482850161100b565b91505092915050565b6000806040838503121561108957600080fd5b600083013567ffffffffffffffff8111156110a357600080fd5b6110af8582860161100b565b92505060206110c085828601610ff6565b9150509250929050565b600080604083850312156110dd57600080fd5b600083013567ffffffffffffffff8111156110f757600080fd5b6111038582860161100b565b925050602083013567ffffffffffffffff81111561112057600080fd5b61112c8582860161100b565b9150509250929050565b61113f816117af565b82525050565b61114e816117c1565b82525050565b600061115f82611788565b6111698185611793565b93506111798185602086016117fc565b611182816118bf565b840191505092915050565b600061119882611788565b6111a281856117a4565b93506111b28185602086016117fc565b80840191505092915050565b600081546111cb8161182f565b6111d58186611793565b945060018216600081146111f0576001811461120257611235565b60ff1983168652602086019350611235565b61120b85611773565b60005b8381101561122d5781548189015260018201915060208101905061120e565b808801955050505b50505092915050565b600061124b602883611793565b91507f4f6e6c7920746865206469737472696275746f722063616e207570646174652060008301527f72657461696c65720000000000000000000000000000000000000000000000006020830152604082019050919050565b60006112b1602783611793565b91507f4f6e6c79207468652072657461696c65722063616e206d61726b20617320617560008301527f7468656e746963000000000000000000000000000000000000000000000000006020830152604082019050919050565b6000611317601b83611793565b91507f496e76616c6964206469737472696275746f72206164647265737300000000006000830152602082019050919050565b6000611357601883611793565b91507f496e76616c69642072657461696c6572206164647265737300000000000000006000830152602082019050919050565b6000611397601983611793565b91507f44727567206e616d652063616e6e6f7420626520656d707479000000000000006000830152602082019050919050565b60006113d7601383611793565b91507f4472756720646f6573206e6f74206578697374000000000000000000000000006000830152602082019050919050565b6000611417601883611793565b91507f42617463682049442063616e6e6f7420626520656d70747900000000000000006000830152602082019050919050565b6000611457602483611793565b91507f4f6e6c7920746865206d616e7566616374757265722063616e2064697374726960008301527f62757465000000000000000000000000000000000000000000000000000000006020830152604082019050919050565b60006114bc828461118d565b915081905092915050565b60006020820190506114dc6000830184611145565b92915050565b600060408201905081810360008301526114fc8185611154565b905061150b6020830184611136565b9392505050565b6000606082019050818103600083015261152c8186611154565b905081810360208301526115408185611154565b905061154f6040830184611136565b949350505050565b600060e0820190508181036000830152611571818a611154565b905081810360208301526115858189611154565b90506115946040830188611136565b6115a16060830187611136565b6115ae6080830186611136565b6115bb60a0830185611145565b81810360c08301526115cd8184611154565b905098975050505050505050565b600060408201905081810360008301526115f58185611154565b9050818103602083015261160981846111be565b90509392505050565b6000602082019050818103600083015261162b8161123e565b9050919050565b6000602082019050818103600083015261164b816112a4565b9050919050565b6000602082019050818103600083015261166b8161130a565b9050919050565b6000602082019050818103600083015261168b8161134a565b9050919050565b600060208201905081810360008301526116ab8161138a565b9050919050565b600060208201905081810360008301526116cb816113ca565b9050919050565b600060208201905081810360008301526116eb8161140a565b9050919050565b6000602082019050818103600083015261170b8161144a565b9050919050565b6000604051905081810181811067ffffffffffffffff8211171561173957611738611890565b5b8060405250919050565b600067ffffffffffffffff82111561175e5761175d611890565b5b601f19601f8301169050602081019050919050565b60008190508160005260206000209050919050565b600081519050919050565b600082825260208201905092915050565b600081905092915050565b60006117ba826117cd565b9050919050565b60008115159050919050565b600073ffffffffffffffffffffffffffffffffffffffff82169050919050565b82818337600083830152505050565b60005b8381101561181a5780820151818401526020810190506117ff565b83811115611829576000848401525b50505050565b6000600282049050600182168061184757607f821691505b6020821081141561185b5761185a611861565b5b50919050565b7f4e487b7100000000000000000000000000000000000000000000000000000000600052602260045260246000fd5b7f4e487b7100000000000000000000000000000000000000000000000000000000600052604160045260246000fd5b6000601f19601f8301169050919050565b6118d9816117af565b81146118e457600080fd5b5056fea2646970667358221220f34e0d1a33b88792269881c22b31d78f5e31f1fa4e233c8ca3b4b0f30a8b52c864736f6c63430008000033",
  "immutableReferences": {},
  "source": "// SPDX-License-Identifier: MIT\r\npragma solidity ^0.8.0;\r\n\r\ncontract DrugTraceability {\r\n    // Structure to store drug details\r\n    struct Drug {\r\n        string batchId;\r\n        string name;\r\n        address manufacturer;\r\n        address distributor;\r\n        address retailer;\r\n        bool isAuthentic;\r\n        string currentOwner;\r\n    }\r\n\r\n    // Mapping to store drug information by batch ID\r\n    mapping(string => Drug) public drugs;\r\n\r\n    // Events for logging activities\r\n    event DrugManufactured(string batchId, string name, address manufacturer);\r\n    event DrugDistributed(string batchId, address distributor);\r\n    event DrugRetailerReceived(string batchId, address retailer);\r\n    event DrugVerified(string batchId, string currentOwner);\r\n\r\n    // Function to register a new drug by the manufacturer\r\n    function manufactureDrug(string memory _batchId, string memory _name) public {\r\n        require(bytes(_batchId).length > 0, \"Batch ID cannot be empty\");\r\n        require(bytes(_name).length > 0, \"Drug name cannot be empty\");\r\n\r\n        drugs[_batchId] = Drug({\r\n            batchId: _batchId,\r\n            name: _name,\r\n            manufacturer: msg.sender,\r\n            distributor: address(0),\r\n            retailer: address(0),\r\n            isAuthentic: false,\r\n            currentOwner: \"Manufacturer\"\r\n        });\r\n\r\n        emit DrugManufactured(_batchId, _name, msg.sender);\r\n    }\r\n\r\n    // Function to record distribution of the drug\r\n    function distributeDrug(string memory _batchId, address _distributor) public {\r\n        Drug storage drug = drugs[_batchId];\r\n        require(msg.sender == drug.manufacturer, \"Only the manufacturer can distribute\");\r\n        require(_distributor != address(0), \"Invalid distributor address\");\r\n\r\n        drug.distributor = _distributor;\r\n        drug.currentOwner = \"Distributor\";\r\n\r\n        emit DrugDistributed(_batchId, _distributor);\r\n    }\r\n\r\n    // Function to record when the retailer receives the drug\r\n    function receiveByRetailer(string memory _batchId, address _retailer) public {\r\n        Drug storage drug = drugs[_batchId];\r\n        require(msg.sender == drug.distributor, \"Only the distributor can update retailer\");\r\n        require(_retailer != address(0), \"Invalid retailer address\");\r\n\r\n        drug.retailer = _retailer;\r\n        drug.currentOwner = \"Retailer\";\r\n\r\n        emit DrugRetailerReceived(_batchId, _retailer);\r\n    }\r\n\r\n    // Function to verify the authenticity of a drug\r\n    function verifyDrug(string memory _batchId) public view returns (bool) {\r\n        Drug memory drug = drugs[_batchId];\r\n        require(bytes(drug.batchId).length > 0, \"Drug does not exist\");\r\n        return drug.isAuthentic;\r\n    }\r\n\r\n    // Function to mark a drug as authentic (usually done at the end of the supply chain)\r\n    function markAuthentic(string memory _batchId) public {\r\n        Drug storage drug = drugs[_batchId];\r\n        require(msg.sender == drug.retailer, \"Only the retailer can mark as authentic\");\r\n\r\n        drug.isAuthentic = true;\r\n        drug.currentOwner = \"Verified by Retailer\";\r\n\r\n        emit DrugVerified(_batchId, drug.currentOwner);\r\n    }\r\n}\r\n",
  "sourcePath": "D:\\drug_traceability_blockchain_project\\contracts\\drug_traceability.sol",
  "compiler": {
    "name": "solc",
    "version": "0.8.0+commit.c7dfd78e.Emscripten.clang"
  },
  "schemaVersion": "3.4.16",
  "updatedAt": "2024-11-27T21:02:52.209Z",
  "networkType": "ethereum",
  "devdoc": {
    "kind": "dev",
    "methods": {},
    "version": 1
  },
  "userdoc": {
    "kind": "user",
    "methods": {},
    "version": 1
  }
}